00000001PEREZ                         00000000000004000
00000002ALVAREZ                       00000000000003000
00000003BREITHER                      00000000000001250
00000004DI AUGUSTO                    00000000000010025
00000005MELOSO                        00000000000006000
00000006MARS                          00000000000003210
00000007TORRES                        00000000000002300
00000008DUFFAUR                       00000000000001500
